:020000040800F2
:10000000001F0020191E000821190008051E000805
:10001000051E0008051E0008051E0008000000005F
:10002000000000000000000000000000D11E0008D9
:10003000051E000800000000711E00089D2D00082C
:100040004D2000084D2000084D2000084D200008DC
:100050004D2000084D2000084D2000084D200008CC
:100060004D2000084D2000084D2000084D200008BC
:100070004D2000084D2000084D2000084D200008AC
:100080004D2000084D2000084D2000084D2000089C
:100090004D2000084D2000084D2000084D2000088C
:1000A0004D2000084D2000084D2000084D2000087C
:1000B0004D2000084D2000084D2000084D2000086C
:1000C0004D2000084D2000084D2000084D2000085C
:1000D0004D2000084D2000084D2000084D2000084C
:1000E0004D2000084D2000084D2000084D2000083C
:1000F0004D2000084D2000084D2000084D2000082C
:100100004D2000084D2000084D2000084D2000081B
:100110004D2000084D2000084D2000084D2000080B
:100120004D2000084D2000084D2000084D200008FB
:100130004D2000084D2000084D2000084D200008EB
:100140004D2000084D2000084D2000084D200008DB
:100150004D2000084D2000084D2000084D200008CB
:100160004D2000084D2000084D2000084D200008BB
:100170004D2000084D2000084D2000084D200008AB
:100180004D2000084D2000084D2000084D2000089B
:040190004D200008F6
:1001940053B94AB9002908BF00281CBF4FF0FF31EA
:1001A4004FF0FF3000F00CB8ADF1080C6DE904CE4F
:1001B40000F010F8DDF804E0DDE9022304B0704734
:1001C400704700BF034613F8012B002AFBD1181A0D
:1001D400013870472DE9F04786468C460846089E4C
:1001E400154674461946002B40F0C2808542B2FA87
:1001F40082F245D94AB1C2F1200300FA02FC2EFA78
:1002040003F3954043EA0C0C94404FEA154EA8B210
:10021400BCFBFEF8230C0EFB18CC08FB00F943EAE8
:100224000C43994528D9EB1808F1FF3704D29945B6
:1002340002D9A8F102072B44A3EB0903A4B2B3FB30
:10024400FEFC0EFB1C330CFB00F044EA0344A0420A
:1002540014D92C190CF1FF3304D2A04202D9ACF109
:1002640002032C44241A43EA07401EB1D44000235D
:1002740034607360BDE8F0874746DDE76346F1E725
:1002840092BB431B01214FEA154EAFB2B3FBFEFCF8
:10029400200C0EFB1C330CFB07F840EA0343984583
:1002A40062D9EB180CF1FF3004D2984502D9ACF1B5
:1002B40002002B44A3EB0803A4B2B3FBFEFC0EFB29
:1002C4001C330CFB07F744EA0344A7424ED92C190C
:1002D4000CF1FF3304D2A74202D9ACF102032C443F
:1002E400E41B43EA0040C0E7C2F1200320FA03F113
:1002F400954090402EFA03F303434FEA154EAFB2F4
:10030400B1FBFEFC0EFB1C10190C0CFB07F841EAB8
:100314000041884504FA02F422D969180CF1FF302F
:1003240004D2884502D9ACF102002944A1EB0801AA
:100334009BB2B1FBFEFC0EFB1C110CFB07F743EA5E
:1003440001439F420ED9EB180CF1FF3104D29F42B6
:1003540002D9ACF102012B44DB1B41EA004192E7D4
:100364006046E3E76146F7E76046A3E76346B7E71D
:10037400834206D916B9002108467BE7C6E900E0A6
:10038400F9E7B3FA83F78FB9834201D3724508D8EA
:10039400BEEB020460EB030301209C461EB900215E
:1003A40068E73846FAE7C6E9004CF8E7C7F1200CDD
:1003B400BB4022FA0CF41C432EFA0CF120FA0CF385
:1003C400B84001434FEA14490EFA07F5B3FBF9F8B4
:1003D4001FFA84FE09FB18300B0C08FB0EFA43EAE3
:1003E40000439A4502FA07F240D9E31808F1FF30B6
:1003F40004D29A4502D9A8F102002344A3EB0A03CC
:1004040089B2B3FBF9F809FB183308FB0EFE41EA85
:1004140003418E452CD9611808F1FF3304D28E456F
:1004240002D9A8F10203214443EA0040A0FB029848
:10043400A1EB0E014145CE46434602D306D14D45BC
:1004440004D2B9EB020E68EB04030138002EA6D0E7
:10045400B5EB0E0261EB030101FA0CFC22FA07F37F
:100464004CEA0303F940C6E9003198E74046C5E782
:100474004346D9E72DE9F04F91B08407009302F089
:1004840004030293C2F3C20303F10103DDF868809D
:10049400039205460E46059340F0BA81041D30B11F
:1004A400072909D86FF01B0011B0BDE8F08F01F0E7
:1004B40007063444C6F10806009B4FF00009591E94
:1004C4004FF0040A4FF0FF330193CDF810904F46DC
:1004D400CB4653460DB1009A22600598002800F3DC
:1004E400E8809848009A824203D397488242C0F039
:1004F400E080039AA4EB050E92074FEA9E0000F1F8
:1005040003810F2F00F2B180002D00F0058107F167
:1005140040020DEB020C019A0CF8200C0CF8102C84
:10052400049801300490E7E07A285DD84B280ED86F
:10053400472859D829282DD8252852D054D82028DE
:100544007AD02338D0F1000B4BEB000B74E04C381D
:100554002E2849D8DFE800F0704848484848484801
:10056400484848484B484848484848484859484BF0
:100574004B595959704B6D487048184B184848826C
:100584007F4B48484B487F0000204FF0000B4FF052
:10059400040A38E02A38C0B2012202FA00F010EA54
:1005A4000E0F49D110F0625C2FD110EA020B43D038
:1005B4006046013C5444B4FBFAF40AFB04F4002DF5
:1005C40061D0A3EB050CA444B4453FF66BAF0028FF
:1005D40068D1042B47D158F8043B23600434042326
:1005E4002AE0019A013A01924FF0000B24E011F83D
:1005F400010C6C2834D111F8023C00206C2B83468A
:10060400C5D14FF0080A5346D3E708F1070828F08C
:1006140007080734F8E802AB24F0070435B106985C
:100624002044B0423FF63EAFC4E900AB08344FF07B
:10063400000B4FF0080A534611F8010F002878D038
:10064400BBF1000F7FF470AF2528F5D1019B013376
:1006540001934FF0010B4FF0040AECE7584694E77E
:1006640000208346A5E7082B02D06FF015001BE796
:1006740008F1070828F00708F8E80223C4E9002372
:1006840008340823D8E768B9042B02D108F1040818
:10069400A4E7082BE9D108F1070828F0070808F1B6
:1006A4000808EDE7059A013A059258F8042B0092E0
:1006B40010E7039A900720D5A4EB050E4FEA9E009D
:1006C4004FF0010CBEF5007FCFD20F2FCDD8F5B17E
:1006D40007F140020DEB020EC0B2019A0EF8200C95
:1006E4000EF8102CBCF1000F3FF41AAF60F07F003D
:1006F4000EF8200C09F101090137C5F10802043490
:1007040006924FF6DA7E97E74FF0000CDAE7BCF179
:10071400000F01D00136EFE7029802360028EBD132
:100724000098CDE90631FFF74DFDDDE906310644B9
:10073400E2E7631BB3F5806F97D23DB9A6F10804D5
:10074400E018B1E6245A0008C06A0008029A28603A
:100754009B082B709DF81030C2B1EB7085F80290A5
:10076400B9F1000F05D008A80022C5F1010C974289
:100774000ED1C5F101030DF120084FF0000A0193D9
:100784000DF1300B574512D1601B8DE66B70E5E718
:1007940010F8013B190608D50CEB040EB64503F01E
:1007A4007F033FF67FAE04F8013B0132DFE7B9F186
:1007B400000F03D098F90020002A17DB029BD3B165
:1007C4001AF80B2004F8012B0022019B181910447D
:1007D400B0423FF667AE98F8000004F8010B0099A8
:1007E4000392204605F091F8039A14440AF1010A91
:1007F40008F10108C6E798F8002055F82230009364
:10080400029B45F822300098FFF7DCFC421CDCE731
:100814006FF00D0048E600BF2DE9F04F97B000AF30
:1008240090F802A0D7F880B03B62CBF3C003044633
:10083400FA62BB61894641B9457800780AEB8000C9
:1008440020444D4517D8A0EB0409E378FB61BAF1C5
:10085400000F02D01BF0010F16D1FB6953BBFB6ADA
:100864001BB13A6A4946204698474D4628465C37AC
:10087400BD46BDE8F08F461C3046FFF7A3FC0130AF
:10088400304409F10109DCE7237862687A62FA6A84
:100894009900796104EB8301002A40F000814D4600
:1008A4000E4601EB0A094FF000084E454CD101EB0E
:1008B4000A0610E01BF0020FD1D023789A007A6167
:1008C40062687A62FA6A04EB8301002A77D14D46A2
:1008D40001EB0A0690461BF0050F0CBF022301230F
:1008E400FB62FB6906EB430A0BF00203BB6256454D
:1008F400BCD016F8021B16F8013C54F82390994B0F
:10090400994502D3984B994536D3BB69002B40D007
:10091400786A03F0FAFE00283BD0E9468AB06A46BA
:10092400924B53617B6AC2E906314FF4007313841E
:100934008F4B42F8103F8F4800234FF4125100F0C0
:1009440037FC023DCD46D2E716F8013BF96254F874
:100954002300FFF737FCD7F88430F96A01304BB134
:10096400D7F8883098453EBFD7F8843023F818006C
:1009740008F10108054498E7BB6923B1786A03F0DC
:10098400C4FE0028C9D11BF0010F05D1FB6AED1A82
:10099400ADE7BB6A002BAAD04846FFF713FCD7F893
:1009A400843053B1D7F8883098453FBFD7F88420B6
:1009B400431C22F8183008F10108054497E7BAF1FE
:1009C400000F72D01BF0040672D0D046002607F147
:1009D400480052463B61B96204F097FFB96A3B692B
:1009E40001EB0A02BA62FA69F9695200FA60BA6A5A
:1009F40002EB41023A610BF00202BA603A69B96A49
:100A04008A4257D162787A621BF0020F32440CBFDB
:100A14004FEA580100211BF0010FD2B240F09F8031
:100A24001BF0040F14BF40460020BB616270A0702D
:100A3400E1703A6A7969FB6A20469847051EFFF619
:100A440015AFBB6923707B6A6370FB69E370414631
:100A54003A6AFB6A84F802A007F148009847B0F1AB
:100A64000008C0F2BB807B693A6AA9EB0A01C91A83
:100A7400FB68C91AD7E90A0398470028C0F2B08076
:100A8400A84408EB00054FF0000B07F1380AB34502
:100A940072D300213A6AFB6A08469847E6E656464E
:100AA4004FF0000807F1380093E75646D04697E721
:100AB400B04695E7BA6A12F8021BBA6212F8015CF2
:100AC400284A54F82500904202D3274A90421ED364
:100AD400BA6932B1786A7B6003F017FE7B6800283C
:100AE4008CD1BA6802BB08F1280207F1300C08F176
:100AF4000100944407F1580252FA80F008F1020808
:100B04000CF8101C5FFA88F800F8105C76E7BA69F4
:100B14003AB1786A7B6003F0F8FD7B6800287FF4C3
:100B24006DAF1BF0010F09D006F1280207F1300068
:100B3400711C161806F8205CCEB25FE71BF0040F98
:100B44003FF45CAF08F1280207F1300008F101011D
:100B540002EB000808F8105C5FFA81F84EE7002009
:100B640063E700BF245A0008C06A0008B6610008A1
:100B740004000001CC5E00081BF80A3087F8373007
:100B840054F82390D7F884302BB3D7F888309B459A
:100B940021D2D7F8843033F81B803A6AFB6A0121EA
:100BA40007F13700984700281ADB0544B8F1000F15
:100BB40006D14846FFF706FB00F101081FFA88F842
:100BC4003A6AFB6A414648469847002808DB0544D0
:100BD4000BF1010B5BE74FF00008DEE7454645E605
:100BE400054643E6014B1860704700BFC00400206F
:100BF40080B505460E461746984602F059FF03464F
:100C040004F004FFDFF81890044649F80030424627
:100C140030463946A84754F8090001F011F900BFDD
:100C24000800000082B0094B002001901A6B42F4C6
:100C340000121A631B6B064A03F400130193019B11
:100C4400536843F00203536002B070470038024017
:100C5400002004E0084B1A6842F480721A601A6893
:100C640042F400721A601A6842F480621A60034BFC
:100C7400034A1A60704700BF003C0240040500208C
:100C84000024F4002DE9F047DFF8588004460746B5
:100C94004FF0010914B93846BDE8F08794FAA4F579
:100CA400B5FA85F509FA05F32E0108EB05156FEA87
:100CB400030A24EA03042B7B002BEBD058F80630FC
:100CC4001B694BB94644042273682846196807EA2D
:100CD4000A0703F0F3FFDDE7284698470028D9D137
:100CE400F0E700BF0C5F000830B51049104889B028
:100CF400002204F0E2FD0F4D0F4900220023CDE94C
:100D0400062300240E23CDE90334CDE901440B4B23
:100D140000944FF44072284602F07CFC08492846AF
:100D240004F0DCFC204609B030BD00BF490D0008CA
:100D3400100A002088050020000E00205910000829
:100D44006A620008014802F0BFBB00BF78050020BA
:100D54002DE9F84F804624480F4603F087FF0646E6
:100D6400002838D000252846BDE8F88FA4EB0B03F3
:100D740062681B1101331371237B83B12368DB6821
:100D84000BB120469847636883F8069023681B6973
:100D9400CBB9636804221968204603F08FFF01363B
:100DA40010345445E2D3B8F1000FDCD0002DD9D073
:100DB4002846FFF767FF0546002FF7D0002164207F
:100DC40004F022FDF2E7204698470028E1D009FA12
:100DD40006F31D43E3E7054CDFF814A00546A346DC
:100DE4004FF00109DDE700BF080C00200C5F00088C
:100DF4002C5F0008014B53F820007047405F000847
:100E040008B5034608462BB1044A136000F066FC9B
:100E1400002008BD6FF01500FBE700BFC4040020EC
:100E240010B5044C237813B9034802F04DFB012399
:100E3400237010BDC80D00207805002010B50446AD
:100E44000B4803F013FF5CB1BFF35B8F094B53E80E
:100E5400001F013943E80012002AF8D1BFF35B8F69
:100E6400054804F036FD0548BDE8104002F02CBBEF
:100E7400000C0020040C0020100A0020780500203B
:100E84000020064BBFF35B8F014653E8000F43E895
:100E94000012002AF9D1BFF35B8F7047000C0020C9
:100EA40070B5FFF7EDFF084C084E0546B44200D379
:100EB40070BD63685B792BB123685B6813B1294605
:100EC400204698471034F1E70C5F00082C5F0008B7
:100ED40010B5044C0449204603F04EFD034B1C603E
:100EE40010BD00BF3C0500202C5F0008F80B00205B
:100EF400084A094808B500231370084A1360084AD1
:100F04004FF47A711360FFF77BFFBDE80840FFF7E9
:100F1400DFBF00BFC90D00208B4C0008000C00206F
:100F2400040C0020014600220148002303F045BDC3
:100F34003C050020014803F0DEBD00BF3C05002055
:100F4400024B0146186803F02ABE00BFF80B0020CC
:100F5400014803F05FBE00BF3C05002070B5264B7E
:100F64001878002846D0FFF7E5FF054600283ED153
:100F7400224B234C1B68002B12DD04F09CFC0A223C
:100F84000023FFF705F9D4E90032C01A40F2E9332F
:100F940061EB0201984271F1000101D3FFF780FF78
:100FA400D4E9003213F57A7342F10002C4E9003245
:100FB400BDE87040FFF7CCBF63685B7923B1236859
:100FC40029461B68204698471034B442F4D3284677
:100FD400FFF7B6FFBFF35B8F0A4B53E8001F0139DD
:100FE40043E80012002AF8D1BFF35B8FC0E7064C38
:100FF400064EEAE770BD00BFC80D0020000C0020BB
:10100400080A0020040C00200C5F00082C5F000874
:1010140070B50D4D297861B90120FFF799FE0B4C8D
:101024000B4EB44206D3FFF799FF0028FBD10123EE
:101034002B7070BD63685B791BB1236820469B6885
:1010440098471034EDE700BFC90D00200C5F00087D
:101054002C5F000800212DE9F0470846FFF778FED1
:10106400044658B34FF4FA784FF0000904F0CEFC6C
:101074001B4B1C4A1B58136033B11B4B1B68092BB9
:1010840002DD1A4802F020FA194FDFF860A00025AB
:1010940044B12046FFF7F6FD044618B94FF0FF3877
:1010A4004FF0FF39FFF75AFF064628B9B5B9424653
:1010B4004B46504602F03CFA3546E9E74FF0FF381C
:1010C4004FF0FF39D2E72B689B691BB10022114610
:1010D400284698471035BD42F5D3E8E7054DFAE7B1
:1010E40008000000FC0B0020040C00207805002000
:1010F4002C5F00080C5F000813B5184803F0B6FD18
:10110400174B1B7873B1EFF31184102383F3128808
:10111400BFF36F8FFFF722FF84F31188BFF36F8F44
:1011240002B010BD0F4B1B68002BF9D050B9002240
:101134000023CDE900230C4842F21072002302F090
:1011440079FFEDE70928EBD1074804F0C2FB074813
:1011540002B0BDE8104002F0B7B900BF040C002093
:10116400C90D0020FC0B0020100A00207805002087
:1011740010B5064B1B68044698472146A0600448F6
:1011840003F09AFCBDE81040FFF7B6BFC40400208A
:101194003C050020044A054B9B1AB1EBD30F34BF26
:1011A40052F8310000207047CC5E00080C5F000844
:1011B4002DE9F04F8FB004AFC1F34A28B8600D4653
:1011C40091467B600C0DB8F1000F63D0002607F147
:1011D40014034FF0040B4FF00A0AC7F80C80C7E958
:1011E40007667E620193CDF808B0CDF800A007F140
:1011F4001C03F96832464846FFF70EFBB0F5006F52
:1012040003461CD36C468AB0D9F8041004AB2648B4
:10121400C3E9050140F2FF71D9611A464FF4007128
:101224001984224B42F8103F214833464FF412519F
:10123400FFF7BEFFA5462C37BD46BDE8F08FC0F3CF
:101244000A0804F11700184420F0070080083B60E6
:10125400FFF768FE68F35325044690B13B68154ACE
:10126400C7E9083600F1100107F11403F961CDE96B
:1012740000A3CDF808B0F96807F11C034846FFF74E
:10128400CBFA68F353257B68B9682A46204603F0F5
:1012940034FDD0E704F1170020F007008008FFF7C1
:1012A40041FE0446EDE700BF7F6200080400000130
:1012B400D45E0008D34C00082DE9F04F87B0DDE977
:1012C4001279DDE9105A0446039193469846BFB15A
:1012D400CDF800903B46524610210020CDF81490E2
:1012E400FFF7C8F8B0F5006F06460AD3184A194844
:1012F40040F2FF73022107B0BDE8F04F03F056BD82
:101304003E4605F11700304420F0070004F00704BE
:101314008008FFF707FE0BF0070BE40044EA8B1488
:1013240044EA462444EA0554054640B13FB1CDF8A9
:1013340000903B46524631461030FFF79BF8039924
:1013440043462246284607B0BDE8F04F03F0D5BC1B
:10135400BE620008D45E0008406820B1034BC01A86
:1013640040F3CF0070474FF0FF307047CC5E000869
:101374000EB403B503AB014653F8042B04480193A0
:1013840000F0E8FF02B05DF804EB03B0704700BF63
:10139400FB4D0008CA0605D48B064CBF024903491D
:1013A400FFF7E6BF704700BFF7620008F662000867
:1013B4002DE9F04F89B09B46149B06939DF84CA0F1
:1013C400159B0593169B179E049304460D46904661
:1013D400BAF1000F00F09D8006F48073079303F0C8
:1013E4006BFC06F00209024600283ED091492046D3
:1013F400FFF7BEFF0746B9F1000F08D016F0440FFF
:1014040035D18D492A462046FFF7B2FF074406F03E
:10141400010353B1894B8A4953F82A20894B20464A
:10142400002A08BF1A46FFF7A3FF06F48073002BB7
:1014340049D006F00803002B63D1B8F1000F66D041
:10144400814942462046FFF793FF0546069B3D44EB
:10145400002B6DD1049B002B73D1F30700F1E480C2
:1014640031462046FFF796FFD8E00746C3E7774B9F
:1014740018680028CAD0764B4FF47A791B68B5FBFC
:10148400F3F54FF46163B5FBF0F100FB115509FB73
:1014940005F54FF03C0CB1FBF3F203FB1211B5FB65
:1014A400F0FEB1FBFCF300FB1E550CFB131109FB12
:1014B40005F50091B5FBF0F56649CDE901E5204657
:1014C400FFF756FFA2E706F00803EBB1624B63494E
:1014D40053F82A202046FFF74BFF0546B8F1000FCA
:1014E40005D0594942462046FFF742FF0544BBF167
:1014F400000FABD05A495A462046FFF739FF05443E
:10150400A4E74FF0000BE1E706F00805E6E74546DF
:101514009CE7BBF1010F069B06D1002B64D1049B11
:10152400002B7BD000250CE0002BF8D04D485CE06C
:101534004D48069B4D49224603F0B6F8049B002B08
:1015440068D0DFF82C81DFF82C91049F3146102FEE
:10155400204628BF1027FFF71DFF4FF0000B5D4505
:1015640045DC059B49461A782046FFF701FF4FF0FA
:10157400010B1BF0070F03D141462046FFF7F8FE8D
:101584005F453BD9059B494613F80B202046FFF7DE
:10159400EFFE0BF1010BBBF1100FEAD136492046E7
:1015A4004FF0000BFFF7E4FE5A46059B9A5CA2F14C
:1015B40020015F2928BF2E2230492046FFF7D8FE9C
:1015C4000BF1010BBBF1100F1DD01BF0070F03D162
:1015D40041462046FFF7CCFE5F455A46E5D84146D2
:1015E4002046FFF7C5FEEBE71F485546A1E74146F5
:1015F4002046FFF7BDFE0BF1010BB0E72049204662
:10160400FFF7B6FEC5E7059B3B440593049BDB1B34
:1016140004939AD1BAF1000F7FF41FAF204609B0AA
:10162400BDE8F04F03F0DABB064A05492046FFF750
:101634009FFE15E7FE62000802630008505F000881
:1016440027630008F96200082A630008100C0020D0
:101654000C0C00200B630008645F00082E63000874
:1016640034630008314E0008FB4D0008592300087C
:1016740041630008396300084363000845630008B8
:101684003F63000873B542F20F738B4228BF0B46C9
:1016940005680F4A04460521684602F00BFD63689D
:1016A4000C495B6806460B22284603F089FB6368F5
:1016B4003246694628465B6803F082FB6368064944
:1016C4005B681B22284603F07BFB02B070BD00BFA1
:1016D400656400086463000848630008074A002141
:1016E4000123904206D8064A01B901231360054B31
:1016F4001860704740085B000121F2E740420F0088
:101704000C0C0020100C0020014B01221A707047B1
:10171400CA0D0020014B002019607047280C0020DE
:101724000148FFF7AFBF00BF945F000810B5064B38
:1017340018680C46FFF75EFB21460346BDE81040DF
:1017440002480F22184700BF280C0020945F0008AD
:10175400F8B5094D094B0A4ED5E9004701221A7024
:101764000CB92C60F8BD214630463A4600F01EF80C
:10177400241A0644F4E700BF1C0C0020CB0D002003
:10178400CC0D002010B9074B18707047064B1B781E
:101794001BB141F2883003F045BF3220002104F030
:1017A40033B800BFCA0D0020CB0D00202DE9F0474F
:1017B400DFF878901E4F80460E46042499F80050B6
:1017C400A5B903F022FF324682464146284601F07D
:1017D4006DFC0546504603F020FFE5B101233B7044
:1017E40099F8003073B93046BDE8F0873246414677
:1017F400002001F05BFC0546EFE72046FFF7C2FF3F
:10180400651E2C46002001F095FC0028EBD03B78A7
:10181400002BF2D1E7E73B78002BE4D0013C2046D3
:10182400FFF7B0FF3B78002BC8D1DCE7CB0D0020DD
:10183400CA0D0020F8B5074F0D4604464618B442B9
:1018440001D12846F8BD14F8011BBB6801485B6848
:101854009847F4E7985B0008014B03600020704749
:10186400D85F00082DE9F047064600AF0C46002972
:1018740036D0E9468AB0D1E90012A3686D46214802
:10188400A8464FF0050AC5E90501C5E9072348F84C
:1018940010AF1D48424600234FF42151FFF788FC46
:1018A400CD46D4E903126369AD461848C5F810A0C3
:1018B400C5E90501C5E907231348002342464FF44F
:1018C4002151FFF775FCCD46E369114A0E48012109
:1018D40003F06CFAA3690F4A0B48012103F066FA7E
:1018E400012E07D1EFF305830B4A0748103B31461D
:1018F40003F05CFA2146304601F04CFCBD46BDE8DD
:10190400F08700BFBA630008F45E0008E9630008CA
:1019140018640008276400085564000808B5034BE0
:101924001B689847BDE8084000F026B8D0040020A2
:1019340030BFFFF7FDBF00BF2DE9F0410B4EDFF8CC
:10194400308006EB0807CC1B054632460949204681
:1019540003F0DBFFA01942460021083C03F0E3FF3B
:101964002C6707F10800BDE8F08100BF000000000B
:10197400040000002C5F0008054B5A699B689A42DA
:101984001FBF044A536843F080535360704700BF3D
:10199400980D002000ED00E070B5294C06460D4678
:1019A4002848294903F0C2FAA36AD9043CD525483A
:1019B400264903F0BBFA1720A36A1A0504D5214867
:1019C400234903F0B3FA18201D4CA36A9B0512D5D2
:1019D4001C48204903F0AAFAA36BA26A100409D593
:1019E4001D4A1848012103F0E1F91EB1A36A23F44A
:1019F4000043A3621920124CA36A590504D5114867
:101A0400164903F093FA1A20A36ADA050ED50D4895
:101A1400134903F08BFA1B20094A936A43F47F436A
:101A2400936200232B7070BD1620C5E7A36A9B0444
:101A3400F2D504480B4903F079FA1C20ECE700BF07
:101A440000ED00E0F45E0008686400087E640008AD
:101A54008F640008A2640008BB640008D064000816
:101A6400EB6400080365000810B5204C20492148A8
:101A740003F05CFAA36A990136D51E481E4903F0A7
:101A840055FA1E20A36ADA0104D51A481B4903F04B
:101A94004DFA1F20154CA36A1B0304D51548184999
:101AA40003F044FA2120A36A590304D511481549C7
:101AB40003F03CFA22200D4CA36A9A0304D50D4886
:101AC400114903F033FA2320A36ADB0304D5094840
:101AD4000E4903F02BFA2420044A936A6FEA034365
:101AE4006FEA1343936210BD1D20CBE700ED00E0C5
:101AF40032650008F45E00084A6500085D65000868
:101B04007765000895650008BA650008D465000883
:101B14002DE9F843364D80468946364836491746FE
:101B240003F004FAAB6ADE0627D53449314803F0E2
:101B3400FDF91124AB6A1D0704D531492D4803F082
:101B4400F5F912242A4DAB6A980718D52D4929486E
:101B540003F0ECF96E6BAB6A190646D52A4A2548A0
:101B64003346012103F022F9B9F1000F03D0AB6A27
:101B740023F08003AB62132403E01024DAE76FF050
:101B840015061B4DAB6ADA0704D52049194803F042
:101B9400CDF91424AB6A9B0604D51D49154803F0FE
:101BA400C5F91524124B9A6AD50602D49A6A90078D
:101BB4000AD55B68190507D54146304600F0FEF9A1
:101BC40010B180F309880224094B9A6A920642BF35
:101BD4005A6A22F400525A629A6A42F0FF029A62E6
:101BE40000233B702046BDE8F8836FF01506C2E77A
:101BF40000ED00E0F45E0008FF65000815660008CB
:101C04008F6400084866000860660008766600086D
:101C1400036500082DE9F041664B8AB0D3F80480CF
:101C240000AF0446C8F30805002686F31188BFF305
:101C34006F8F02F07F43B3F17F4F07D102F00C03A3
:101C4400082B12D15C495D4803F070F90026344634
:101C54000023FB71EB1E092B00F28A80DFE803F0FE
:101C64000A80837C88888888888610074CBF0C4645
:101C74000126EDE7524951484E4D03F057F9002330
:101C8400FB71EB6A9A0705D54E494C4803F04EF9AF
:101C9400002332E0EB6A002B01DA4B49F5E7EB6AEB
:101CA4005B00F5D54949454803F040F96B69A269E1
:101CB40043F480736B61BFF34F8FBFF36F8F6B6916
:101CC40032F8022C23F480736B61BFF34F8FBFF3A0
:101CD4006F8F4DF602739A4208D0AB6ADBB273B3CE
:101CE400FA1D01212046FFF713FF37E02368384A25
:101CF4003248012103F05AF82368FA79DAB907F176
:101D0400080504F1200C206861682A4603C20834DF
:101D140064451546F7D17A6A002E45D0C2F308010E
:101D240021B96FEA52226FEA42227A6207F108016E
:101D34001846FFF797FD2837BD46BDE8F081AB6A2A
:101D440013F47F4F04D0F91D0120FFF725FE05E0B1
:101D5400AB6AB3F5803F9BD3FFF786FE0346CCE71F
:101D6400FA1D0021BEE7F91D0020EEE719498CE7B2
:101D7400194A1A4B18F4F87FE8468AB018BF13467C
:101D84006A461749C2E905134FF400731384103DE2
:101D9400144BD56142F8103F084800234FF4115109
:101DA400FFF706FAC54673E722F4FF7222F0010238
:101DB400BBE700BF00ED00E0C3660008F45E000866
:101DC400EE66000805670008266700083467000807
:101DD400536700086F670008AA6600089566000844
:101DE4009367000804000001044B5A6942F0100292
:101DF4005A615A6922F008025A61704700ED00E006
:101E0400EFF30880EFF3098101B57246FFF702FF93
:101E140001BD00BF102080F3118808484FF404610D
:101E2400401880F30988EFF314800221084380F3FB
:101E34001488BFF36F8F00F081F800004011002078
:101E4400084B9B6883420BD1EFF3058343B1064BE8
:101E54005A6842F080525A605A6A22F400425A6226
:101E640001F02CBE980D002000ED00E014498A68B2
:101E74004FF030001044EFF3098C80E8F01F10207D
:101E840080F31288BFF36F8F0E4F4FF000664A69DC
:101E94008A603E60106F0C4C2060506F00235367C3
:101EA40080F3118804B5104600F0ECF8BDE8044056
:101EB40002F1300090E8F01F8CF3098870470000AD
:101EC400980D002004ED00E0500C00201EF0040FDB
:101ED4000CBFEFF30880EFF30980816911F8021C4D
:101EE4000229FFD001B5724603F01CF801BD00BF02
:101EF40040B2002807DB044A4109012300F01F0017
:101F0400834042F82130704700E100E040B20028ED
:101F1400A8BF00F1604001F10101B8BF064B4FEAD0
:101F24000111ACBF00F5614000F00F00C9B2B4BFAD
:101F3400195480F80013704714ED00E00F4A08B5F7
:101F44000F4B22F07F029A60BFF34F8FBFF36F8F66
:101F5400D3F8882022F47002C3F88820EFF31483A6
:101F640023F0040383F31488BFF36F8F01F0FEF9A9
:101F740001F0BAFE00F05CF801F03CFA0000000841
:101F840000ED00E042F8203C009B42F81C3C0A496A
:101F9400019B42F8183C029B42F8143C21F00101D9
:101FA4004FF0807342F8043C42F8081C0023203AA6
:101FB40002654367704700BFF50B0008094A0346F2
:101FC400906870B113F1160F006E05D0A0F14002B5
:101FD4009A4205D8834203D2814228BF0020704729
:101FE40000207047980D002008B51546094A0A4B91
:101FF4009060026F1A600E4600F044F82C4686F397
:1020040009880020054B9847204600210022002320
:10201400034C2047980D0020500C0020414F00082D
:10202400F50B0008014B10221A61704700ED00E027
:10203400044800231021C2180133552B82F80013E1
:10204400F9D1704700E100E008B5EFF30583064AD3
:10205400103B02EBC30152F8330049688847BDE8DE
:102064000840FFF789BC00BFC05B0008024B034A6D
:102074000348012100F08AB80080012000000020FC
:10208400D85F0008026E054B403A1A60044A4021AA
:10209400C3E901121846012100F082B8540C002053
:1020A40000000B1508B503461048D0F89020C2F381
:1020B4000722013A934207D90D480E4A012102F042
:1020C40075FE6FF0150008BDC0F898300A6822F05C
:1020D4001F021A4342F01002C0F89C208A6842F0A2
:1020E4000102C0F8A0201846EDE700BF00ED00E0B3
:1020F400EC5E0008AA670008F0B50E4685B01F46DE
:1021040004460025B5420DDA606810B397B1431E4A
:1021140018420AD0104A11482B46012102F046FE0B
:102124006FF01502104605B0F0BD1F28F2D92168E2
:102134000B42EFD12368019302F014FFA36801A9B5
:102144000343D0B20393FFF7ADFF10F1160FE7D0AE
:10215400421C01350C34D5E7D0670008EC5E00085A
:10216400044B0522C3F89420BFF34F8FBFF36F8F46
:10217400704700BF00ED00E0BFF35F8F024B002209
:10218400C3F89420704700BF00ED00E010B5034C85
:1021940001232278FFF7B0FF207010BDDD0D002071
:1021A40008B50B4A00231278FFF7A6FF10F1160FAB
:1021B40007D0084A0021D2F89030C3F3072398428D
:1021C40000DB08BDC2F89800C2F8A0100130F2E7A5
:1021D400DD0D002000ED00E02DE9F043574858499B
:1021E400D0F890300D68C3F307239D4285B000F208
:1021F400A180FFF7C1FF49680022954201F10C015B
:102204001AD1504C504F25706846FFF725FBDFF874
:102214003C81DFF83C9106460025AE421FD123786D
:1022240046490020D1F89020C2F3072293427BDB79
:10223400FFF796FF00204CE0C0F8982051F80C3CC2
:1022440023F01F03134343F01003C0F89C3051F8EC
:10225400043C43F00103C0F8A0300132CDE70098FC
:1022640000EB05114FEA051CCB683B40B3F5000FAA
:1022740044D00AD8B3F5001F2ED0B3F5800F34D064
:10228400B3F5801F10D00135C7E7B3F1807F3ED08E
:10229400B3F1007FF7D150F80C3088684A6802F037
:1022A40061FE40F4802009E050F80C3088684A68E8
:1022B40002F058FE40F0885040F43020039001A909
:1022C4002078CDE90123FFF7EDFE002828DA6FF02E
:1022D400150005B0BDE8F08350F80C3088684A68F2
:1022E40002F040FE40EA0800E8E750F80C30886845
:1022F4004A6802F037FE40EA0900DFE750F80C3084
:1023040088684A6802F02EFE40F08270D6E750F8E2
:102314000C3088684A6802F025FE40F08870CDE7EA
:10232400237801332370AEE7C1F89830C1F8A000D8
:10233400013377E74FF0FF30CBE700BF00ED00E05B
:10234400E45F0008DD0D00200000F0FF000008112C
:1023540000000207F0B587B007460E461446002178
:10236400102268461D4603F0DEFA02238DF802307F
:102374002A46054B019321466846CDE9047601F0CF
:10238400C5FE07B0F0BD00BF894F000808B5024B79
:102394001B689847002008BD600C0020034B044ACA
:1023A4001860937843F0020393707047600C002028
:1023B400D404002008B50649064821F00701C1F1FC
:1023C400005202F5C03202F032F9002008BD00BF0D
:1023D400471F0020640C00202DE9F041104E114FDE
:1023E400054600244FF001082B7871691A19D2B2FE
:1023F40008FA02F201EA02008A4309D153FA84F38B
:10240400706157F833201AB107EBC303596890473A
:102414006A780134E3B29A42E6D2BDE8F08100BFA3
:10242400003C0140700C0020044B1844002301338D
:10243400994200F8012BFADC704700BF1005002018
:1024440007B5062201210020FFF7EEFF0022114606
:102454000620FFF75BFD012108460722FFF7E4FF92
:10246400002211460720FFF751FD08220121022016
:10247400FFF7DAFF002211460820FFF747FD092283
:1024840001210320FFF7D0FF002211460920FFF7A6
:102494003DFD0A2201210420FFF7C6FF0022114658
:1024A4000A20FFF733FD052108461722FFF7BCFF7A
:1024B400002211461720FFF729FD282206210A20B1
:1024C400FFF7B2FF002211462820FFF71FFD442228
:1024D40005484FF48043CDE90023836869461B68AF
:1024E400984703B05DF804FBBC5A0008034660B18A
:1024F400B0FA80F2C2F11F02D2B205498856054AE9
:1025040011680B431360FFF7F3BCFF22F5E700BF2C
:1025140010050020003C0140024A136823EA00032E
:1025240013607047003C0140032921D8DFE801F023
:10253400020C10190F4B9A6822EA00029A60DA68BA
:1025440022EA0002DA6070470A4B9A680243F5E710
:10255400084BDA680243DA609A6822EA00029A6059
:102564007047044B9A6802439A60DA681043D86053
:10257400704700BF003C014030B5B0B1B0FA80F301
:10258400C3F11F03DBB20B4850F833408C4204D133
:1025940000EBC3056D68954205D044B940F833108B
:1025A40000EBC3004260002030BDFF23EBE76FF077
:1025B4000F00F9E7700C002060B1B0FA80F3C3F1AA
:1025C4001F03DBB2044A002142F8331002EBC302BA
:1025D40051607047FF23F5E7700C002000F0030200
:1025E400043292000F23934043EA9000C3B20233B3
:1025F400054A52F82320030C02EA104093FAA3F38D
:10260400B3FA83F3D84070470038014038B50888DE
:10261400264BC0F30B0007281B680D46144614D83C
:1026240010B96FF0850038BD0238052806D8DFE8F8
:1026340000F03403343220284FF4FA43236029682D
:10264400B1F5805F2BD20020EDE744280ED82F2867
:10265400E7D900F57D61C1F30B0101228A401449D9
:102664000A42EBD14028DCD15B08E7E7A828E5D093
:10267400D7E700F0B3F84FF4A872C30853439B089C
:10268400DCE700F0ABF84FF4A872C3085343072209
:10269400B3FBF2F3D2E7074BD0E70023CEE7C1F355
:1026A40013310131B3FBF1F32360CCE704050020BF
:1026B4001101100000127A00F8B5444F444C00F0A8
:1026C400AFF8384602F012FD00F044FCA368414A1A
:1026D400C3F303131578D35C47FA05F520FA03F620
:1026E400AE4202D2284600F063FC236843F4802300
:1026F4002360236843F480332360354B1A689103C5
:10270400FCD55A6F42F001025A675A6F9207FCD502
:102714009A6802F00C02082A17D11A68940707D4A1
:102724001A6842F001021A60294A13689807FCD516
:10273400274B9A6822F003029A609A6812F00C0FF1
:10274400FBD19A6822F0F0029A60214C236823F0AE
:102754008073236023689901FCD4636823F44033B5
:1027640043F480336360636823F0706343F0E06391
:10277400636000F037F8236843F080732360144BE0
:102784001A689201FCD59A6822F0F0029A609A685D
:1027940022F0030242F002029A609A6802F00C02EC
:1027A400082AFAD1AE4202D3284600F001FC0A4BB3
:1027B400074A1F60936823F4E05343F48053936003
:1027C400936823F4604393600020F8BD00BD0105C5
:1027D400003802406F690008040500200048704773
:1027E40000127A00094B0A495A681140094A0A43FF
:1027F4005A605A68084922F4403242F480325A60DE
:102804005A681140054A0A435A607047003802402A
:102814000080BFFF085440000080BFF00854400708
:10282400064B1A6C42F080521A641B6C82B003F09F
:1028340080530193019B02B0704700BF00380240EF
:1028440008B5074802F0FDFE38B10648FFF7A6FDBB
:102854000448FEF7C7F9002008BD6FF01200FBE73B
:10286400985B00086D2800080A2838B5074D04460F
:1028740004D1AB680D215B6828469847AB680348D0
:102884005B68E1B29847204638BD00BF985B0008FA
:102894002DE9F843D0F80480D0F81090D8F8080057
:1028A40017460D461E4602F078FBB7F5001F044696
:1028B40016D12846D8F80840FFF790FE84420CD180
:1028C400294602F06AFB0446FFF726FE2046FFF77E
:1028D40073FE00212046FFF727FE0020BDE8F883A1
:1028E400B7F5800F20D0B6F1806F19D0B6F1C06F64
:1028F40018D0B6F1007F1AD1022610494A46204664
:10290400FFF73AFEB0B9D8F80810284602F048FBA1
:1029140020463146FFF708FE2046FFF7E7FDDCE7D7
:102924000126EAE70326E8E76FF08500D6E76FF0B3
:102934001500D3E76FF00F00D0E700BF6553000820
:1029440038B5036904465860084D284602F079FEFC
:1029540040B16168AB680C311B682846984700EAAF
:10296400E07038BD6FF01200FBE700BFBC5A0008EE
:102974002DE9F0471E4F044600EBC1060025B44282
:1029840001D1002014E02068C30600F01F0911D40F
:10299400656845F02005C0F3481AC0F344201028A8
:1029A40023D857F82080B8F1000F0DD16FF0120032
:1029B400BDE8F087B9F1100F04D0B9F1110FEAD1D5
:1029C4006568E8E73025E6E7404602F03AFE00286D
:1029D400ECD04B462A460AF00F01404602F0D6FCE2
:1029E400002804F10804CADAE2E76FF01500DFE713
:1029F400A4600008024A0348012102F0CEB900BFD6
:102A0400BC680008045F0008F8B503690C465E68FA
:102A140023794168012B34D09A1E55425541AD02A9
:102A24006279022A9CBF354F37F812C0A27988BF59
:102A34004FF4005C042A27D0003B18BF01231B037A
:102A4400E279012A0A680CBF4FF440770027A642B6
:102A5400D1681CD121F4B05129430B43D3601369CD
:102A640023F4405343EA0C03136143681A6853691F
:102A740023F440733B4353613168BDE8F84002F0EE
:102A840093BD4FF4C065CBE74FF48053D8E701F40E
:102A9400C0618D421FBFD16821F4C0612943D16058
:102AA400426811680A6902F4405294451FBF0A69DA
:102AB40022F4405242EA0C020A6142681168CA6870
:102AC40002F4805293421FBFCA6822F48052134317
:102AD400CB6043681A68536903F440739F421FBF75
:102AE400536923F440733B4353612168336899422B
:102AF40003D002F059FD23683360F8BDB0610008CB
:102B0400F7B50469466805462E48206002F099FD31
:102B140048B92D4A2D48012102F03FF96FF0120403
:102B2400204603B0F0BD2068F16883681B689847AD
:102B34000446E0B9306A01AA002102F03FFC041EF9
:102B4400EEDB019B002219791868FFF711FF041EC0
:102B5400E6DB6E682B6934685F68E36823F400532E
:102B6400E360706802F06DFD48B9194AD2E7194A6A
:102B74001648012102F011F9002CD1DBDAE7D6E97D
:102B840001018368DB6803B1984704F10C0353E83F
:102B9400003F43F00C0304F10C0141E80032002A29
:102BA400F3D139462846FFF72FFF337D1BB1636904
:102BB40043F008036361E36843F40053E3600024D3
:102BC400AEE700BFBC5A0008EA680008045F0008CA
:102BD40029690008096900082DE9F04143681D6866
:102BE4000369D3F804800B790C46012B4979A67943
:102BF40033D102294CD9042E47D04FF480574FF4D7
:102C0400C06203238B4240D1002F79D0002A14BF25
:102C140003220422B24238D1E37963B1012B34D1C7
:102C24003A4B9D4207D0A3F54C439D4203D003F594
:102C340050439D4229D1EB6823F40053EB602146B5
:102C4400FFF7E2FEEB6843F40053EB6094E8030003
:102C540088E803000020BDE8F081022B08D1022996
:102C640021D9042E11D04FF480624FF48057C8E765
:102C740002290A461FD9042E04D133B94FF48057D0
:102C84001A46BEE763BB0329C4D06FF08500E2E7B0
:102C94001F4A042E32F811C0F7D04FF4C062033B30
:102CA400012B10D8F1E71A4A042E32F811C0ECD0E7
:102CB4004FF48062F3E7164A042E32F811C016D19D
:102CC400002BE2D11A464FF48057BCF5805F13D035
:102CD400BCF5405F12D0BCF1000F92D1012391E703
:102CE400033B012BD1D90022BFE70022D7E7002BF9
:102CF400FBD11A461F46E8E7002383E7022381E756
:102D0400002A14BF0222032284E700BF00100140FE
:102D1400B061000810B54FF0E0230F499C691A69AF
:102D240008689B690D4902F4803234B993B90346AB
:102D34004AB90A681044C01A10BD002B08BF0346E4
:102D44000AB9A342F5D90A6802440A604FF0E022A6
:102D54001269EEE70446F3E7940D0020900D00207D
:102D64000A4B102283F82320094B42F2D0021A6046
:102D7400084B002018604FF0E02342F2CF025A6162
:102D840098611A6942F007021A61704700ED00E089
:102D9400940D0020900D0020684620F007018D4618
:102DA40019B5FFF7B7FF114B1149D3E90042086881
:102DB400001942F10002C3E900020E4A00230B602D
:102DC400D2E9004142F2D003001BB0FBF3F04343CD
:102DD4001B1941F10001C2E9003101F045F8FEF789
:102DE400CBFDBDE819408546704700BF500A00205E
:102DF400900D0020480A00202DE9F041DFF8DC8026
:102E040099B1421C0BD14FF0E022136923F0010366
:102E140013614FF07F43C8F80030BDE8F081D8F863
:102E24000060012807DC00270BE0431CD8F8006091
:102E3400F7D140F2CC7040F2CD739842A8BF184647
:102E4400471EEFF31185102383F31288BFF36F8FAE
:102E5400FFF760FF224C4FF0E0239969D4E9002387
:102E6400801843F10003C4E900031E4B00221A60DA
:102E74001D4B1A68831A2ED442F2D00C0CFB073374
:102E840003F503530F33B3FBFCF7131A0CFB07339F
:102E9400B3F5806F154A38BF4FF48063934228BF5F
:102EA40013464FF0E022C8F80030013B90695361AB
:102EB400002393618142A1EB0003D4E9001238BFDF
:102EC4009B195B1842F10002C4E9003285F31188B2
:102ED400BFF36F8FA1E74FF48063E2E7940D002006
:102EE400500A0020900D0020480A0020C0D5FF00A1
:102EF40038B5EFF31185102383F31288BFF36F8F76
:102F0400084B1C68084B1B68E41AFFF703FF85F3A2
:102F14001188BFF36F8F42F2D0032044B0FBF3F06B
:102F240038BD00BF500A0020480A002038B5EFF32E
:102F34001185102383F31288BFF36F8F044B1C6831
:102F4400FFF7E8FE85F31188BFF36F8F204438BD87
:102F5400500A002008B513498B6803F00C03042BB6
:102F64001CD0082B1CD14A684B68496813F48003B1
:102F740014BF0D480D48C1F3881118BF002302F097
:102F84003F02A1FB0001FDF703F9064B5B68C3F3A5
:102F9400014301335B00B0FBF3F008BD0248FCE7DA
:102FA4000248FAE70038024000127A000024F400D4
:102FB400002841D0214B1A681A6802F44042B2F545
:102FC400004F25D11E4A90421DD81E4A1B689042CC
:102FD40001D8002005E003F440430120B3F5804FFD
:102FE40024D0194A136823F00703034313601368BA
:102FF40003F0070383421CBF136803F00703C01ADE
:1030040018BF012070471B68022003F44043E5E722
:103014001B6803F44043B3F5804FDAD1084B984260
:1030240008D8084B98424FF00000DAD9012838BF7D
:103034000120D6E70220D4E7012070470070004049
:103044000087930380C3C901003C024008B5124BBA
:10305400A8220021184602F066FC032202610F49EF
:1030640042610F4A8161C2614FF4806202620022B0
:1030740082624262C26201660A4941661021816627
:10308400094902670346C266426711F8010D985464
:103094000132102AF9D108BD100400207F6900080C
:1030A4001000002000000020986900082DE9F84F66
:1030B400DFF87C80182606FB008E00FB066646447B
:1030C400DEF82440DEF828C07368A4450746894624
:1030D400154603EB040022D8DEF820B0ABEB040A5B
:1030E4000AF1FF339A4203D802F00FFC2C440FE09C
:1030F40063449A4219D852462C4402F006FCB4EBBD
:103104000B0405D07068224609EB0A0102F0FDFBAE
:10311400182303FB078301205C62BDE8F88F0CF1E0
:10312400FF3CACEB040C9445DED20020F5E700BF75
:1031340010040020034B182202FB00339A6A586AD9
:10314400801A70471004002010B4084A084900236C
:10315400C85C12F8014D844204D10133102BF7D11D
:1031640010BC704710BCFFF771BF00BF986900081E
:103174001004002010B50446FDF74AFF0348044A32
:10318400012101F00AFE204602F066FAF45E00080E
:10319400996900082DE9F843044600AF0D46EFF3A2
:1031A4001188102383F31288BFF36F8F0428294AF0
:1031B40098BF294B9668117C94BF53F82030274B55
:1031C400E9468AB06A462648C2E9073140F201332B
:1031D4009384244BC2E9050442F8103F224800239B
:1031E4004FF43151FDF7E4FFCD4645B1EB69C3F32C
:1031F400080323B11D4A1C48012101F0CEFD2EB164
:10320400304602F06EFA08B1037803B91848E9466B
:103214008AB06A46174BD061C2E9053640F20133E1
:103224001384154B42F8103F00230F484FF41151FB
:10323400FDF7BEFF2946CD462046FFF79BFF88F3E6
:103244001188BFF36F8F3046FEF7FAFDBD46BDE827
:10325400F88300BF980D002084610008A869000865
:10326400BE69000805000001F45E0008E669000874
:10327400B6690008076A00080400000138B5094B64
:1032840053F82040013053F82050A54200D838BDEF
:10329400636823B1204602F0E7F90834F5E72368B0
:1032A4009847FAE79861000870B52B4B2B4C2C4DCE
:1032B400012286B003201A70FFF7E0FF00F0F4FE4D
:1032C40002F0EEF90420FFF7D9FF2646AE4204F1DE
:1032D400300410D300F0F4FA204C224EAC4226D332
:1032E40000F002FB01F06FF91F4A137B23F0010386
:1032F400137306B070BD54F80C3C059354F8103C9D
:10330400049354F8143C039354F8183C029354F86F
:103314001C3C019354F8203C009354E90A2354E9DB
:103324000C0100F02BF954F8303C5E65CDE7D4E98C
:103334000A23B3F1FF3F08BFB2F1FF3F05D052EAC1
:103344000301206803D100F08FFB3034C6E7314617
:10335400183000F013FDF8E7DE0D0020685E000869
:10336400685E0008D9570008D80A002008B5034849
:10337400034A0021121A02F08FF908BD88050020C3
:10338400E00D002070B5002386B00122CDE90423AE
:10339400134E144D01930F22CDE902321249142326
:1033A40003FB005506EBC01604464FF4C07000FB47
:1033B40004110E4B00954FF4A072304600F0DEF875
:1033C400737B0B4AEE6023F0040373734FF40463BE
:1033D40004FB033313442C746B6006B070BD00BF50
:1033E400580A0020980D002080190020A7560008D4
:1033F40040110020BFB50020FFF740FF2A4B83F3A4
:1034040008882A4C2A4F636943F4007363610025DA
:10341400F02384F82230E57725766576A57684F85E
:103424002050636A43F4E0236362FEF7DDFCFEF799
:10343400F9FD4FF0FF33A362E362FEF7CDFEFEF722
:1034440015FEFDF755FD1B481B4C00F00FF902F06B
:10345400F7F8FDF7FFFB0120FFF710FF0220FFF74D
:103464000DFF00F075FA154B15495C61154B05937A
:103474000123CDE903534FF480623B46CDE9015566
:103484000095204600F07AF8627B064622F004029A
:103494002046627302F061F92846FFF773FF3A464B
:1034A40031462046FEF7A0FD8019002000ED00E023
:1034B400AD320008580B0020D80A0020980D0020D7
:1034C400001B0020696A000870B5EFF31186102311
:1034D40083F31288BFF36F8F0468A0421AD0CCB173
:1034E400D4E9003213605A60637B002523F00203A1
:1034F4006373C4E90055A56004F1180002F0B6F93D
:103504002046A56702F029F931460848BDE8704015
:1035140000F0B0B9D0E902329A4218BF0133836097
:1035240086F31188BFF36F8F70BD00BFDF0D0020DD
:1035340013B5EFF31181102484F31288BFF36F8F56
:10354400846844B1013C846081F31188BFF36F8FB8
:10355400002002B010BD52EA030406D181F31188A1
:10356400BFF36F8F6FF00F00F3E7CDE9002302463E
:10357400014800F053F9ECE7DF0D00202DE9F0439A
:10358400073285B022F007020E461F4610990173D8
:1035940000F158037F32C0E916330446002322F0B9
:1035A4003F020421836041733F2A0F98A073C4E94A
:1035B4000633E37306F14009A2F1400805D883F30A
:1035C4001188BFF36F8F084602DFB51829462046DD
:1035D400FEF7B2F907300E9B20F00700A066C4E99D
:1035E400189802930D9B01932D1A0C9B00932A4665
:1035F4003B4631462046FEF7C5FC00236365044B79
:103604009B6803B1DB6EE366284605B0BDE8F08332
:10361400980D0020F0B587B000250595109D049500
:103624000F9D03950E9D0295DDE912760D9D019582
:103634000C9D00950446FFF7A1FFB6F1FF3F08BFBC
:10364400B7F1FF3F05D056EA070305D1204600F045
:103654000BFA204607B0F0BD03493A46334604F15D
:10366400180000F08BFBF4E7D957000840F201136F
:1036740083810023C0E91833C366014B9860704707
:10368400980D0020094A93686FF00A019967084968
:1036940058674B6843F080534B60002383F31188D1
:1036A400BFF36F8F9368986F704700BF980D002029
:1036B40000ED00E070B590F90D20437B002A36DB65
:1036C400D90634D11B4C63F07F032246437352F86E
:1036D400183FE169934207D1C0E900210860E06125
:1036E40011E09942F8D01B68002BF5D090F90E50E8
:1036F40093F90E60B542F4D0AE42F2DD5968C0E9E8
:10370400003108605860A569954200D005B9E568A4
:10371400A3685A7BD20604D1DA897F2A01D9AA691F
:1037240032B1AB4202D0284600F086FA656170BD22
:103734006361FCE7980D002038B590F90D20437BB8
:10374400002A014604DA03F07F03437301F0CBFF40
:103754000D4D2A46AB6852F8184F944200D004B974
:10376400EC688B4207D05A7BD20604D1DA897F2ACF
:1037740001D9A2692AB1A34202D0204600F05CFA22
:1037840023466B6138BD00BF980D002070B590F9D9
:103794000D20437B002A014604DA03F07F034373C0
:1037A40001F0A1FF4B7B1C4C63F07F0322464B735B
:1037B40052F8183FE069934207D1C1E90020016043
:1037C400E16111E09842F8D01B68002BF5D091F923
:1037D4000E5093F90E60B542F4D0AE42F2DD586853
:1037E400C1E9003001605960A569A368954200D021
:1037F40005B9E5688B4207D05A7BD20604D1DA8931
:103804007F2A01D9AA692AB1AB4202D0284600F026
:1038140013FA2B46636170BD980D0020F8B5124B66
:103824000C461146114A98681060DDE90676EFF3FC
:103834001182102282F31288BFF36F8F9D6828468D
:1038440001F063FFB6F1FF3F08BFB7F1FF3F06D0B9
:1038540007493A46334605F1180000F08FFA20462E
:10386400BDE8F840FFF70EBF980D0020B80D00200A
:10387400D957000849B9EFF3058030B9054B5A69A7
:103884009B689A4201D0FFF7FDBE81F31188BFF314
:103894006F8F7047980D0020034648B9EFF30582F7
:1038A40032B9064A51699268914201D0FFF7EABEE3
:1038B40083F31188BFF36F8F704700BF980D00200A
:1038C400EFF31181102383F31288BFF36F8F054B3D
:1038D4009A68D37B013BD37381F31188BFF36F8F55
:1038E400704700BF980D002070B5EFF311861023C8
:1038F40083F31288BFF36F8F144DAB68DA7B013208
:10390400DA732A4652F8184F944200D004B9EC688E
:103914005A7BD20604D1DA897F2A01D9A2692AB155
:10392400A34202D0204600F087F923466B6186F358
:103934001188BFF36F8FEFF31180102383F3128884
:10394400BFF36F8FBDE87040FFF7A6BF980D00204E
:10395400024B03F11802C3E906227047980D0020B8
:1039640070B5EFF31186102383F31288BFF36F8FC2
:103974001B4CA168E0690B68814214BF1A460022FF
:1039840049680B605960A368E1692AB9154AC3E91B
:1039940000210B60E3610CE093F90E0092F90E50E4
:1039A400A84218D0854216DD5168C3E900210B6096
:1039B4005360A5690B4B9D4200D005B9E568A36827
:1039C4009D4202D0284600F037F965613046BDE8D3
:1039D4007040FFF757BE8A42D8D01268D5E700BFBF
:1039E400980D0020B00D002050EA01032DE9F041AC
:1039F40005460E4604D1FFF7B3FF0020BDE8F08171
:103A0400831C71F1FF3324DB01F051FF2C18EFF319
:103A14001188102383F31288BFF36F8F0F4F104B5D
:103A2400B8681860FFF788FEB8680E492A4633461E
:103A3400183000F0A3F9BA68537B43F004035373BE
:103A44004046FFF71FFE01F032FF201A20EAE07023
:103A5400D4E76FF00104241AD9E700BF980D0020C1
:103A6400B80D0020D957000838B50446EFF3118586
:103A7400102383F31288BFF36F8F437B5B070FD54B
:103A8400183001F0F3FE637B23F0040320466373D4
:103A9400FFF710FE29460548BDE83840FFF7EABEA7
:103AA40085F31188BFF36F8F38BD00BFDF0D002091
:103AB400014B9868704700BF980D00202DE9F8432A
:103AC4000446077BEFF31186102383F31288BFF3B8
:103AD4006F8F437B190705D586F31188BFF36F8F6A
:103AE400BDE8F883D90943F0080261D14273A368A1
:103AF40013B1204601F0FFFD04F1180001F0B6FEF9
:103B0400A56D04F15808A84511D04FF0000975B10E
:103B1400284601F0F0FD05F1180001F0A7FEC5F8F4
:103B240078902846FFF7C6FDA56DA845EFD1DFF8CC
:103B3400A080D8F808309C4242D1EFF30589B9F14E
:103B4400000918BF4FF00109D8F81850214A9542CE
:103B540000D00DB9D8F80C50AB4202D0284600F082
:103B64006BF8C8F81450B9F1000F02D01A48FFF7E7
:103B74007DFDD8F808309C4225D1EFF3058313BBB3
:103B8400227BD20706D583F31188BFF36F8F0423FA
:103B9400184602DF3046FFF775FDFB07A0D500236A
:103BA40083F31188BFF36F8F0423184602DF97E76E
:103BB40003F07F0343F00803437301F094FD96E799
:103BC4004FF00009C0E786F31188BFF36F8FE4E775
:103BD400980D0020B00D0020580B0020044BC01A93
:103BE400044BC0105843044B01221A54704700BFC1
:103BF400D80B0020ABAAAAAADF0D0020C3897F2B13
:103C040012D80A4B1B6863B1094B90F90E201B684C
:103C14009A4209DB437BDB0606D1064BC31A18BF65
:103C2400012303F0010070470023FAE7C00D0020D0
:103C3400BC0D0020580A002070B50E4B0E4C1E7CA3
:103C440006EB460304EBC3040546204601F00EFED2
:103C54000A4B002228469A55FFF7D0FF48B1084B7B
:103C640008491A68013A2046D317BDE8704000F0AD
:103C740085B870BD980D0020D80B0020DF0D002002
:103C8400C00D0020E13B000838B5EFF31185102387
:103C940083F31288BFF36F8F104B114A9C6810682E
:103CA400A04206D1FFF7C8FF85F31188BFF36F8FD9
:103CB40038BD00211B7C11600A4AD35C002BF3D071
:103CC4002046FFF79BFF0028EED0637BDB0602D182
:103CD4002046FFF75BFD2046E4E700BF980D002077
:103CE400B80D0020DF0D00200748084A084908B530
:103CF400121A01F0D3FC0748074A0849BDE80840F6
:103D0400121A01F0CBBC00BFC004002088050020BB
:103D1400C86A0008B8040020C0040020C06A000873
:103D2400024B1868984208BF00207047080500201D
:103D3400034B1B680BB9FFF7DBB80020704700BFCB
:103D4400C40D002030B570B10B4B5B6898420AD0AB
:103D5400036843B1D3E90421D0E90445121941EBC6
:103D64000501C3E90421D0E9003213605A6000233D
:103D7400C0E9003330BD00BF08050020B3F1FF3FA8
:103D840008BFB2F1FF3FF8B504461D4616465AD0A7
:103D94008160EFF31187102383F31288BFF36F8FD1
:103DA400013275F1FF3321DA2C49D1E900206FF09B
:103DB40001039B1A4FF0FF3262EB00009E1B60EB85
:103DC4000500012E70F1000301DA01260020C4E988
:103DD4000460FFF7A5FF224E84467068BCF1000F13
:103DE4000DD1C4E90060046074601CE0FFF7A0FF1B
:103DF400013645F10005361845EBE070E7E7DCE9EC
:103E04000425D4E90431934271EB050E1CDAD21A6D
:103E1400DCF8043065EB0105CCE90425C4E900C3F2
:103E24001C60CCF80440FFF77BFF844207D10D4BA4
:103E34001C6824B901F001FD2146FEF7DDFF87F37C
:103E44001188BFF36F8FF8BD9B1A61EB05018445A0
:103E5400C4E90431C5D0DCF800C0BFE7F00B002092
:103E640008050020C40D00202DE9F047EFF311856B
:103E7400102383F31288BFF36F8FDFF8A090DFF86D
:103E8400A080C9F80000FFF74BFF00260027D9F8EF
:103E94000030D8E900ECD91750B1D0E90442A3426C
:103EA40071EB020A1ADAE41A62EB0102C0E9044275
:103EB40013EB0E034CEB01010024C8E90031C9F8EF
:103EC400004001F0BAFC2146FEF796FF85F3118805
:103ED400BFF36F8FBDE8F047FFF7D6BE14EB0E02B9
:103EE4004CEBE473C0E90467C8E90023FFF72AFF39
:103EF40085F31188BFF36F8F83689847EFF31185BB
:103F0400102383F31288BFF36F8FD9F800301B1B83
:103F1400C9F80030FFF704FFB9E700BFC40D002063
:103F2400F00B002010B5EFF31184102383F31288F3
:103F3400BFF36F8FFFF7FCFE054A0346D2E9000189
:103F4400181841EBE37184F31188BFF36F8F10BD30
:103F5400F00B0020F8B50446EFF31187102383F328
:103F64001288BFF36F8F026822B187F31188BFF301
:103F74006F8FF8BDD0E90A36581C46F100010228BB
:103F840071F1000127D3012B76F10001BCBF01239D
:103F940016465D1E46F1FF3601F08DFC013041F1FD
:103FA4000001401946EB0101012871F1000139DBE0
:103FB40001F081FC013041F100016FF00102401970
:103FC40046EB0103121A4FF0FF3161EB030318496A
:103FD4002046FFF7D3FE236B01332363236A6BB1BF
:103FE40087F31188BFF36F8F236A20469847EFF356
:103FF4001187102383F31288BFF36F8F54F8185F6F
:10400400A542B2D0002DB0D0284601F0B5FB002364
:10401400AB6787F31188BFF36F8F2846BDE8F8407C
:1040240001F09BBB6FF001024FF0FF33CFE700BFFD
:10403400593F00082DE9F04105461C4690461F46AD
:10404400EFF31186102383F31288BFF36F8FB4F15B
:10405400FF3F08BFB2F1FF3F05D186F31188BFF3DC
:104064006F8FBDE8F081531C74F1FF3309DB012A23
:1040740074F10003BCBF0122002412F1FF3844F1A3
:10408400FF37284601F0F2FBDDE906010023C5E90C
:104094000A012B63034942463B462846FFF76EFE5E
:1040A400DBE700BF593F0008014800F055BB00BFE3
:1040B400716A00080CB430B589B005460C461C2260
:1040C400002101A801F02FFC02238DF806300E4BCD
:1040D4000293059523462CB1B4F1004F28BF4FF04D
:1040E4000043013B1D440DAA0C99069501A80092BA
:1040F40000F00CF814B1059B00221A7009B0BDE859
:10410400304002B0704700BF015A00082DE9F04F5B
:104114008DB043680293837815469A07804640F130
:104124000D8100240E78002E00F00A81252E0BD07C
:104134004B1C03930134029B4146304698470028A8
:10414400C0F2F6800399EDE74E788B1C252E03937D
:10415400F0D00027B946BB46BBF11F0F38D8A6F1F3
:104164002003102B0AD8DFE803F02A0909300909D3
:10417400092109090928092D09091F00A6F130039D
:10418400092B33D92A2E37D11BF0400F55F8043BA5
:1041940040F08280002BA7BF4BF0200B9946C3F15F
:1041A40000094BF0280B01E04BF0010B039B13F8C3
:1041B400016B0393002ECFD130E04BF0020B4BF098
:1041C400040BF3E74BF0080BF0E74BF0100BEDE7B3
:1041D400BBF17F0F19D8A6F13003092BD2D81BF0FD
:1041E400400F03D00A2101FB0737DFE70A2101FB57
:1041F40009394BF0200BD9E72E2E06D11BF0400FC6
:1042040040F09E804BF0400BD0E76C2E31D02BD881
:10421400682E36D06A2E3CD04C2E3AD0002F46F071
:104224002003B8BF2BF04002A3F16501BCBF1FFA05
:1042340082FB0027022901D9612B2FD1073525F0F4
:104244000705DFF8ACA2083507271BF0080F66D076
:104254000AEB070B56465E4563D1A4EB0A0A06EB4C
:104264000A02A9EB07096FE1742E9FD07A2E9DD024
:10427400D4E71BF0800F18BF4BF4007B4BF0800B8E
:1042840094E71BF4807F18BF4BF4007B4BF4807BD6
:104294008CE74BF4207B89E71F4687E7A6F163018F
:1042A400122900F2F080DFE811F013004F00EE0055
:1042B400EE00EE00EE004F00EE00EE00EE00EE0029
:1042C400EE00FE00E900EE00EE001B00EE00AF0081
:1042D40055F8043B8DF8183001270DF1180AB4E79E
:1042E40055F804AB834BBAF1000F08BF9A461BF094
:1042F400400F14BF39464FF0FF31504601F01BFB0D
:104304000746A2E7029B41462020984700280FDB7E
:10431400013EB742F6D34C44A41BB14698E74E463F
:10432400F7E716F8010B029B41469847002892DAFA
:1043340098F8023043F0040388F802304FF0FF3459
:1043440020460DB0BDE8F08F1BF0800F34D01BF475
:10435400007F2CD0073525F00705AA4669685AF86E
:10436400080B2BF010050029ADB237DA404261EB9F
:10437400410145F480650DF1180B0A235A4601F0FA
:10438400E6FAA0EB0B0301936B0662D5019B25F0C3
:1043940001019F4289B240F3A180002E00F0998070
:1043A40015F0100240F09C80BB460D4623E0AA465F
:1043B4005AF8040BC117D4E7AA461BF4807F5AF8B5
:1043C400041B01D10846F5E71BF4007F15BF48B272
:1043D40008B241F3C01141F3C031C2E750EA01030E
:1043E400C9D11BF0400FC6D0002FC4D12BF011024D
:1043F40095B2BB46019740F2064115EA01021CBF83
:104404000BF1010B00222CE02BF010021FFA82FBAF
:104414000A231BF0800C49D01BF400711DBF073523
:1044240025F00705AA46AA461ABF5AF8080B696878
:104434005AF8040B50EA010545D12BF016051BF080
:10444400400FADB242D0002F40D12BF0170295B2ED
:10445400019715F0100248D0019B002E42D103F1C0
:10446400010B29075AD4EB0706D5D9456FDD01990D
:10447400A9EB0B035F18CB465B4649E04BF0100BEE
:1044840010237826C5E7782B04D1C6F1780343F0CE
:104494001003BEE7029B4146252098470028FFF6FB
:1044A40047AF023447E608230026B2E7AA461BF4C6
:1044B40080715AF8040BBDD01BF400711ABFC0B24E
:1044C400614680B2B6E72BF0060295B20DF1180BE7
:1044D40054E725F01105ADB2BB468CE70D46B8E7AD
:1044E4003B460D4603F1020BBBE7DDF804B082E75F
:1044F400B66A0008AF6A0008CDE904324146029B5F
:10450400202098470028FFF613AF049B059A013337
:104514009945F1DCA4EB0B01CC189B460AB3029B32
:104524004146302098470028FFF602AF8EB9013487
:104534002744019B391B994224DC1D465DBB019A2B
:10454400A9EB0B09224455461446914435E0019FDA
:1045540092E7023441463046029B98470028E7DA46
:10456400E6E640F206410D42E2D015F0020F14BF18
:104574002B20202015F4806F04F10104414618BF5C
:104584002D20E9E7029B414630209847002804F19A
:104594000104CEDACCE606AB013D4146585D029BF0
:1045A40098470028CADAC3E6029B41462020984770
:1045B400002804F10104FFF6BBAEA9EB0403002BB1
:1045C400F2DCBFE5704708B5002141F2883001F004
:1045D4001BF9002008BD00EBC1004088400870476B
:1045E400F8B50346FFF7F7FFB0FA80F0C0F11F00FB
:1045F40003EB800CCA00DCF81060171D0C46063271
:104604008DB256B9012101FA00F0D9680143D9608D
:10461400CCF81040DD539D52F8BDF1000431585AD6
:10462400D85303EBC0009E52C5805D52F4E7043AB0
:104634002DE9F041CC1D114424F0070421F00701B9
:104644000E1BF708B7FA87F2C2F12405AD004FF04C
:1046540000080735C2F12002ED0804604146A76056
:10466400C4F80C80920004F1100001F05CF96B00B6
:1046740043F00103638004EBC5027B1B5900A4F8DB
:1046840000805180A21924F83550A2F80280A35367
:1046940004EBC70329465A8842F001025A80204697
:1046A400BDE8F041FFF79CBF2DE9F04706460D46F3
:1046B400174698462BB398F8004093F80190DB789E
:1046C400A40004EB430498F802301C4444444FF023
:1046D400000ACA4509D3D8F8042008F1080339466A
:1046E4003046AC46BDE8F047604714F8013B48F853
:1046F40023402046FBF766FD013004440AF1010A19
:10470400E7E76FF01500BDE8F08770B500250246B5
:104714002846144614F8013B0BB9184609E098B131
:104724008D4207D1702B04D0A3F140023A2A0BD852
:10473400002070BDA3F140063A2E05D85378013508
:10474400941C002BE9D00020252B08BF80F0010029
:104754002246DEE7002070470FB407B504A951F8DC
:10476400040B019100F097FA03B05DF804EB04B078
:10477400704710B50369024613F0080009D11368A5
:10478400D4689C4297BF126AE31AD31A01200B60C3
:1047940010BD00231846FAE713B501A90446FFF734
:1047A400E8FF20B1019BE268013B13440193206AB6
:1047B400019BC01A013802B010BD10B50446501850
:1047C4002269236AD20702D5013B184010BD9842E2
:1047D40028BFC01AFAE710B504460A46C168FFF7B5
:1047E400ECFF2369E06023F00803236110BD38B5B2
:1047F4000D46C2698B00016843F0020342F8213080
:10480400044601682A46FFF7D8FFE3686168206020
:10481400984202BF236943F0080323612A462046D5
:10482400FFF7CBFF606038BD2DE9F74FC768C66955
:104834009B4606EB8703009316F8273003F0030327
:10484400022B0446884691464FF000030BD01360B8
:10485400CBF8003023699B0713D44FF0000A50466D
:1048640003B0BDE8F08F56F8271013608908CBF821
:104874000030EFD0FFF7AFFFE368A3604FF0010A09
:10488400EDE7A36906EB8700984716F8272012F096
:10489400010A0546E1D012F002021FD0B8F1000F60
:1048A40003D041462046FFF7A2FF61682A4620460E
:1048B400FFF783FFD4E902219142606006D12A46C2
:1048C4002046FFF77AFF4FF0000AA060A26822603A
:1048D400E260226942F008022261C0E701462046F4
:1048E4000192FFF778FFE368A360B8F1000F04D0EA
:1048F4002168E369019A43F8212005EB0802CBF80B
:10490400002021682046FFF758FF2369206043F008
:104914000803236116F827306FF3000306F82730E5
:10492400009BC9F80030A9E770B504461546FFF7A7
:1049340044FF2368834205D12369216023F00803DF
:10494400236170BDE269AB0043F0020342F82130F9
:10495400204661682A46FFF730FF6060F1E738B50A
:1049640003695B07044606D5456AFFF715FF8542D0
:104974002CBF6562606238BD38B50D4604461C2202
:10498400002100F0D0FFEB68A361AB6863612B6882
:10499400E3616B682362002262622A6923B1591EB3
:1049A400194208BF42F001022261012204F12800E9
:1049B4000021BDE8384000F07FBE2DE9F04F87B0FC
:1049C40000250093036A03958B4204460E469246E3
:1049D4000595A94639D3EFF3118B102383F312887D
:1049E400BFF36F8F059AD8462AB129462046FFF7B0
:1049F4009BFF0023059304A92046FFF7BAFE049900
:104A0400B14207462AD32268E36913F8221021F041
:104A1400030103F8221003EB820921683246204681
:104A2400FFF7CBFEE3682060984212D0002788F39A
:104A34001188BFF36F8F039929B162690AB12046C7
:104A4400904700230393002FC5D1484607B0BDE823
:104A5400F08F236943F008032361E7E718B1204688
:104A6400FFF7C5FEE3E7009B5AEA03021CD001915D
:104A740000F02EFE0199B8B9BBF1000F14D187F3F1
:104A84001188BFF36F8F009B524604F12800FEF794
:104A94004FFDEFF31188102383F31288BFF36F8F58
:104AA400B0FA80F77F09C2E705AB03AA2046256860
:104AB400FFF7BAFE0746BAE770B5044683690846AD
:104AC4000D4698470246EFF31186102383F31288AC
:104AD400BFF36F8F2B7843F001032B70616820467E
:104AE400FFF76BFE60602046FFF739FF86F31188FD
:104AF400BFF36F8F70BD2DE9F04104461027EFF32B
:104B0400118687F31288BFF36F8F236913F0080FA0
:104B1400A36802D16268934200D9226AE169D21A79
:104B240032B986F31188BFF36F8F4FF0000833E07A
:104B340011F8232012F0030001EB8308F1D00228BE
:104B440003D151F82350AD0805D1D00712D4A3697D
:104B5400404698470546A1682A462046FFF72DFEA1
:104B64002946A0602046FFF736FE86F31188BFF37E
:104B74006F8FC4E742F0020201F823204046A36984
:104B8400A5689847294602462046FFF716FEA0600E
:104B940086F31188BFF36F8F4046BDE8F081F8B506
:104BA4000446836908460D4698470646EFF3118785
:104BB400102383F31288BFF36F8F2B786FF30003F6
:104BC4002B7023699B0705D5E268E36903EB820335
:104BD4009D421AD12B786FF341032B70D4E9023133
:104BE400994204D132462046FFF7E7FDA0603146E2
:104BF4002046FFF7F0FD87F31188BFF36F8F04F1B0
:104C04002800BDE8F840FEF75FBC2B6860F39F0303
:104C14002B60F0E7EFF31181102383F31288BFF3C5
:104C24006F8F036913F0080F836802D142689342BF
:104C340000D9026AD31A81F31188BFF36F8F181E4B
:104C440018BF01207047704703785B075FBF036894
:104C54004288C3F34A2303EB12105DBF173020F0E0
:104C64000700800800207047002070470346BFF308
:104C74005B8F53E8000F421C43E800210029F8D160
:104C8400BFF35B8F704708B500F015FE0A220023BE
:104C9400FBF77EFA08BD1FB50023CDE90201CDE97B
:104CA40000331A4619461846FCF706FB05B05DF8B2
:104CB40004FB0120FCF7C2B8002070474368DA7196
:104CC40043681960436801225A71FCF7A9B870B5AA
:104CD400D2E901369B1B8B420C4615460AD3136856
:104CE4000A460146981900F010FEAB682344AB60F5
:104CF400204670BD6FF01B00FBE770B50E461546ED
:104D04001946044618B9BDE87040FCF797B833B1AA
:104D1400C2F34A231030120D184400F0F6FDC4E922
:104D240000562046BDE87040FCF722BA2DE9F34155
:104D34005F1C4FEA8708064608F1170020F00700B9
:104D440080080C461546FCF7EDF80023ADF8053055
:104D54008DF807308DF8047068B10346019A43F862
:104D6400102FA8F104012A46294452F8045B43F8A1
:104D7400045F8A42F9D1A20102F4E07242EA4822B5
:104D840022F07F4222F47002002322F03F023146D7
:104D940002B0BDE8F041FFF7B0BF07B501230192AF
:104DA40001AAFFF7C3FF03B05DF804FB07B5CDE923
:104DB400002302236A46FFF7B9FF03B05DF804FB42
:104DC400F8B506460D4614461F4604B9F8BD2146FB
:104DD40028463A46B047241A0544F6E710B5426817
:104DE40081680446D2E900230068FFF7E9FF63689D
:104DF40000221A6010BD38B54B681A68CB689A4215
:104E040005460C4602D10846FFF7E8FF6368BFF386
:104E14005B8F53E8002F511C43E800100028F8D1A1
:104E2400BFF35B8FA3689D54002038BD0A2838B5B2
:104E340004460D4602D10D20FFF7DDFF294620462A
:104E4400FFF7D9FF002038BD2DE9F043054687B0B0
:104E540008460E8891F80090D1F808800C46174651
:104E6400FCF77AFA011EC6F38216C9F3C2091EDBE7
:104E74004846FCF78FF903462146608851F8102B09
:104E84000196C2F34A22002A01EB0204C0F30B107C
:104E940008BF00210022CDE90407CDE902140092E5
:104EA40041462846FCF784FA07B0BDE8F0830023A6
:104EB400E2E743681B685B68002019617047436838
:104EC4001B681A685268536070472DE9F0414368C3
:104ED4001B685A68012111751D68D5E90136D3E9AB
:104EE40000482F681CB96B681C60BDE8F08121463E
:104EF40030464246B847241A0644F3E743681B6821
:104F04001868FCF7BFBB70B543681D686B68186907
:104F14000C46FBF76FFF214603460F222868BDE8C5
:104F24007040184701460068FCF79CBC0A46012102
:104F3400FFF733BF00210120FCF794BC61B662B6D1
:104F440080F31188BFF36F8F704772B6002383F329
:104F54001188BFF36F8FBFF34F8F30BF62B6BFF3BB
:104F64006F8F7047202809D9B0F1004F08D8013855
:104F7400B0FA80F0C0F11F0040007047082070476D
:104F84003E20704708B5D1E904319847002008BD98
:104F940008B5FDF7FBF9002008BD012088407047E3
:104FA40000F00302043292000F23934043EA90007E
:104FB40010B5C3B29B0003F1804303F59C33020C8C
:104FC4009C6892FAA2F2B2FA82F224EA104091406A
:104FD4000143996010BD0B88C3F30B0303F57D6295
:104FE400C2F30B02782A82B014D803F1804303F58C
:104FF4000E3348681A6802431A600B88C3F30B0324
:1050040003F1804303F50E3300201B680193019BD9
:1050140002B070476FF08500FAE70B88C3F30B0307
:1050240003F57D62C2F30B02782A9FBF03F180432C
:1050340003F50E3349681A689DBF8A4300201A603D
:105044006FF085007047072808D8EA23C34013F09F
:10505400010F14BF00206FF0850070476FF08500CA
:10506400704710B50888C0F30B00FFF7ECFF002869
:105074001FDB4A68FF2A1BD093B203F1804303F578
:105084000E33C2F384541868C2F3054204FA02F2E0
:1050940020EA02021A6049688BB203F1804303F5E7
:1050A4000E33CA0E1868C1F305418A4002431A60E0
:1050B400002010BD0888C0F30B0008B500F57D631F
:1050C400C3F30B03782B0AD800F1804000F50E30AF
:1050D4004B680268934314BF0120022008BDFFF708
:1050E400B2FF002814BF01200220F7E7704743688D
:1050F4005B681B690B600020704743685B685869F4
:1051040042400A4042405A610020704743685B684D
:1051140000209961704743685B6809049961002025
:10512400704743685A6853694B4053610020704785
:1051340010B503699868F8B1884219D1DC68086829
:105144009860A14200D1D860002008602AB19A6812
:105154000A60DA68996002B9D960002010E08142DF
:1051640006D108682060D8688142EDD1DC60EBE7A5
:10517400044600680028F2D1002AE8D16FF0150037
:1051840010BDF0B544680120676888401E46C2F32C
:10519400801327EA00078B403B43636090FAA0F733
:1051A400B7FA87F7D4F808C04FF0030E7F000EFA61
:1051B40007F72CEA070C90FAA0F7B7FA87F7C2F3BF
:1051C400C1137F00BB4043EA0C03A36090FAA0F331
:1051D400B3FA83F3E7685B000EFA03F327EA0307E5
:1051E40090FAA0F3B3FA83F302F030055B00C2F344
:1051F40041229A403A43202DE26016D107292BD848
:1052040090FAA0F3226A2BB3B3FA83F39B000F2125
:1052140001FA03F322EA030290FAA0F3B3FA83F348
:105224009B0006FA03F31343236290FAA0F3B3FA44
:1052340083F3226890FAA0F05B000321B0FA80F0B7
:105244002D0901FA03F3400022EA030385401D43BC
:105254002560F0BD2B46D9E7030A616A93FAA3F2ED
:1052640082B1B2FA82F292000F2793FAA3F3B3FA4F
:1052740083F307FA02F29B0021EA02029E401643DE
:105284006662D2E72A46EEE712F4003CF8B505461A
:105294000C4613461DD0960714D550075DD55022F1
:1052A400D90611D542F4007203F4C061B1F5806FE0
:1052B40042D0B1F5C06F19D0B1F5007F18D142F0DA
:1052C400800215E01022EBE79F06EDD542F48062E0
:1052D400EAE7D60305D5D00605D4C2F340129202FC
:1052E400E2E73022E0E74FF40072DDE742F4C072F7
:1052F40013F440372E6908D0306920FA04F1C90745
:105304005FBF0121A14001433161BCF1000F06D010
:10531400180314D5696801234968A3408B61686840
:1053240000232146FFF72DFF27B9336923FA04F23E
:10533400D2070CD40020F8BD42F48072D8E7590398
:10534400EDD50121A1402846FFF7E5FEE7E701225C
:10535400A24023EA02033361ECE76FF08500EAE739
:1053640070B50B468968054611B15E680C6801B9D1
:1053740070BD8A682A4002D04B68304698471CB1F9
:10538400236821461C46F2E72346FAE7F8B51F4690
:10539400044640680E461546FFF7F3FE112F07D169
:1053A40001212B0501FA06F104D563685B68996154
:1053B4000020F8BD2046FFF7AEFEF9E730B50368DC
:1053C40013600579046804EBC504A34202D36FF0AB
:1053D400010030BD5C798C4201D00833F0E7002035
:1053E400F7E74368C1F34B101B6801F01F01C05875
:1053F40001238B40034214BF0123002313700020B8
:10540400704710B54368C1F34B101A6801F01F01CF
:10541400845801238B4023438350002010BD10B5D2
:105424004368C1F34B14186801F01F01235801228B
:105434008A4023EA02032350002010BD38B50446F5
:105444000D46FFF7DEFF29462046FFF7E8FF002060
:1054540038BD82B003680193019B43680193019BAB
:1054640002B0704708B54368186802680368D90732
:105474000368C2F3C00248BF42F002029B070368FC
:1054840048BF42F004025907036848BF42F02002B3
:10549400DB0542BF6FF4807342F008020360D1075A
:1054A40001D5FFF7D6FF930701D5FFF7D2FF5107C8
:1054B40001D5FFF7CEFF930601D5FFF7CAFF1046CB
:1054C40008BD10B543681B6810201A681206FCD585
:1054D400EFF3118280F31288BFF36F8F1C682406E8
:1054E40004D482F31188BFF36F8FEEE7596082F31F
:1054F4001188BFF36F8F10BD08B54368186803683F
:105504001A0701D5FFF7A5FF03689B0643BF43684D
:105514000B7000204FF0FF3008BD03695B681B6807
:105524000B6043681B68DB6803F4C063B3F5806FEA
:105534002FD0A3F5C06CDCF1000343EB0C030B711B
:1055440043681B681B6903F44053B3F5805F22D0A2
:10555400B3F5405F21D0002B0CBF012303234B7113
:1055640043681B68DA68DB68D20403F4C06316D5A9
:10557400002B14BF032304238B7143681B685B69EE
:1055840003F44073A3F5407253425341CB7100209E
:1055940070470223D3E70023E1E70223DFE7002B70
:1055A40014BF02230323E7E737B502694368106891
:1055B4001C680D46D9688368DB681BB9FDF71AFAC5
:1055C40003B030BD01AA98470028F7DBE3680198CF
:1055D40023F400431921E360AA00AB0FA0FB0101EF
:1055E400FAF7D6FD6422B0FBF2F102FB11031B01B2
:1055F4003233B3FBF2F303EB01139BB2A360DFE797
:1056040008B5FDF7A1FD002008BDEFF311801023BC
:1056140083F31288BFF36F8F704780F31188BFF351
:105624006F8F704738B5044648B1FDF77FFC5423AB
:1056340005465C43FDF77AFC431BA342FAD338BD0D
:10564400704740B1C368587810F001001EBF187845
:10565400B0FA80F040097047EFF31183102383F30D
:105664001288BFF36F8FFEE710B5D0E9003433B969
:105674000020E268537843F00103537010BD2046C4
:1056840098470028F4D00028B8BF4042E368FF28B8
:10569400A8BFFF201870ECE700F045B900F035B959
:1056A400704708B51024EFF3118384F31288BFF315
:1056B4006F8FFFF74AFCF6E73AB18A4205D3C0E997
:1056C4000212C0E90000002070476FF01500704717
:1056D400EFF30580003818BF012070476FF05700C2
:1056E400704700207047D0E9003213605A600023ED
:1056F400C0E90033704708B5FFF7F5FF437B23F09B
:10570400020343730023836008BD38B504460D4685
:10571400FEF712F8637B43F002036373E5B1A560FF
:105724002B689D4209D16B68C4E900531C606C600E
:1057340012E06A689A42F6D01B68002BF3D094F901
:105744000E2093F90E108A42F3D09142F1DD5A688B
:10575400C4E9003214605C6038BD10B5EFF3118405
:10576400102383F31288BFF36F8FFDF7A3FF84F335
:105774001188BFF36F8F10BD08B5EFF311811022AC
:1057840082F31288BFF36F8F83680BB1FFF7B3FF07
:1057940081F31188BFF36F8F08BD10B50146EFF395
:1057A4001184102383F31288BFF36F8F437B13F0AC
:1057B400280F0AD183680BB1FFF79DFF4B7B23F0C1
:1057C40004034B730846FDF775FF84F31188BFF398
:1057D4006F8F10BD01211838FFF7DFBF08B50346EE
:1057E400EFF31181102282F31288BFF36F8F0068E8
:1057F400834207D008B1FFF77EFF81F31188BFF31E
:105804006F8F08BD0020F8E738B505460C46FEF753
:10581400EBF8B4F1FF3F08BFB5F1FF3F0AD0C11761
:1058240009304FF00A024FF0000341F10001FAF78A
:10583400AFFC38BD4FF0FF30FBE710B5FEF770FA50
:105844000446FEF775FA74B1D4E904321B1A62EB0C
:10585400E072B3F1004F72F1000104DA002AACBF28
:105864001846002010BD6FF00040FBE738B5024633
:10587400EFF31185102383F31288BFF36F8F03684E
:1058840093B1FEF74DFA04461046FEF75BFA8442E4
:1058940004D1FFF7D2FF0021FDF7AEFA002085F313
:1058A4001188BFF36F8F38BD6FF01500F7E708B5A7
:1058B400FEF738FB08BDFEF735BB0023C0E908122C
:1058C40000F11802C0E90622C0E900330363436310
:1058D400704710B50446FFF7C9FFA8B9636A0BB156
:1058E4002046984704F11800FFF778FF60B1FFF7EE
:1058F40034FFEFF31180102383F31288BFF36F8F0B
:10590400BDE81040FDF7C8BF10BD0A44914200F144
:10591400FF3300D1704710B511F8014B03F8014F64
:105924009142F9D110BD02440346934200D170471D
:1059340003F8011BF9E710B5024601448A421346F5
:1059440003D01C780132002CF8D1181A10BDF0B520
:10595400C3F137070446FFB203F01F031046082BB8
:10596400E6B233D0102B3ED06508A40844EA817413
:1059740045EAC1752D194FEA910242EB51022909FA
:1059840041EA02716D1842EB1212290A41EA0261DE
:105994006D1842EB1222290C41EA02416D1842EBC8
:1059A4001242AD1842F10002EC0844EA4274D108F4
:1059B40004EB8402A6EB4205EDB2092D0CD90134A7
:1059C400A5F10A0541F10001EDB212E0E40844EA50
:1059D400417406F00705C908303554EA010200F89D
:1059E400015BBCD1F0BD240944EA017406F00F0543
:1059F4000909092D84BFED19EDB2EDE7D1E90432AF
:105A040093421EBF5A1C0A6118707047014800680F
:085A140070470000500C002057
:085A1C00ACA7FF7F01000000B0
:105A2400BD260008BC5A0008290C0008000000002C
:105A3400055600080000000000000000D05A0008CD
:105A4400452900085C5B000845290008845B0008C0
:105A540045240008E45A000845290008705B000842
:105A640045290008485B000845290008345B000804
:105A740045290008205B0008452900080C5B000844
:105A840045290008F85A0008052B0008985B00080F
:105A9400052B0008AC5B0008452800080000000046
:105AA400652D000800000000ED0C00080000000057
:085AB400B92300080000000006
:105ABC002E680008000000009C5E000822050020F3
